{
  "contractName": "Degrees",
  "abi": [
    {
      "inputs": [],
      "stateMutability": "nonpayable",
      "type": "constructor"
    },
    {
      "inputs": [],
      "name": "degreeCount",
      "outputs": [
        {
          "internalType": "uint256",
          "name": "",
          "type": "uint256"
        }
      ],
      "stateMutability": "view",
      "type": "function"
    },
    {
      "inputs": [
        {
          "internalType": "uint256",
          "name": "",
          "type": "uint256"
        }
      ],
      "name": "student",
      "outputs": [
        {
          "internalType": "string",
          "name": "Student",
          "type": "string"
        }
      ],
      "stateMutability": "view",
      "type": "function"
    },
    {
      "inputs": [
        {
          "internalType": "uint256",
          "name": "id",
          "type": "uint256"
        },
        {
          "internalType": "string",
          "name": "sName",
          "type": "string"
        }
      ],
      "name": "addStudent",
      "outputs": [],
      "stateMutability": "nonpayable",
      "type": "function"
    },
    {
      "inputs": [
        {
          "internalType": "uint256",
          "name": "id",
          "type": "uint256"
        },
        {
          "internalType": "string",
          "name": "quali",
          "type": "string"
        },
        {
          "internalType": "string",
          "name": "uni",
          "type": "string"
        },
        {
          "internalType": "string",
          "name": "img",
          "type": "string"
        }
      ],
      "name": "addDegree",
      "outputs": [],
      "stateMutability": "nonpayable",
      "type": "function"
    },
    {
      "inputs": [
        {
          "internalType": "uint256",
          "name": "num",
          "type": "uint256"
        }
      ],
      "name": "getDegreeImage",
      "outputs": [
        {
          "internalType": "string",
          "name": "",
          "type": "string"
        }
      ],
      "stateMutability": "view",
      "type": "function"
    },
    {
      "inputs": [
        {
          "internalType": "uint256",
          "name": "id",
          "type": "uint256"
        }
      ],
      "name": "search",
      "outputs": [
        {
          "internalType": "uint256[]",
          "name": "",
          "type": "uint256[]"
        }
      ],
      "stateMutability": "view",
      "type": "function"
    },
    {
      "inputs": [
        {
          "internalType": "uint256",
          "name": "id",
          "type": "uint256"
        }
      ],
      "name": "searchCount",
      "outputs": [
        {
          "internalType": "uint256",
          "name": "",
          "type": "uint256"
        }
      ],
      "stateMutability": "view",
      "type": "function"
    },
    {
      "inputs": [],
      "name": "Count",
      "outputs": [
        {
          "internalType": "uint256",
          "name": "",
          "type": "uint256"
        }
      ],
      "stateMutability": "view",
      "type": "function"
    },
    {
      "inputs": [
        {
          "internalType": "uint256",
          "name": "id",
          "type": "uint256"
        }
      ],
      "name": "studentName",
      "outputs": [
        {
          "internalType": "string",
          "name": "",
          "type": "string"
        }
      ],
      "stateMutability": "view",
      "type": "function"
    },
    {
      "inputs": [
        {
          "internalType": "string",
          "name": "a",
          "type": "string"
        },
        {
          "internalType": "string",
          "name": "b",
          "type": "string"
        }
      ],
      "name": "compareStrings",
      "outputs": [
        {
          "internalType": "bool",
          "name": "",
          "type": "bool"
        }
      ],
      "stateMutability": "pure",
      "type": "function"
    },
    {
      "inputs": [],
      "name": "echidna_check_add_student",
      "outputs": [
        {
          "internalType": "bool",
          "name": "",
          "type": "bool"
        }
      ],
      "stateMutability": "nonpayable",
      "type": "function"
    },
    {
      "inputs": [],
      "name": "echidna_check_student_name",
      "outputs": [
        {
          "internalType": "bool",
          "name": "",
          "type": "bool"
        }
      ],
      "stateMutability": "nonpayable",
      "type": "function"
    },
    {
      "inputs": [],
      "name": "echidna_check_no_degree",
      "outputs": [
        {
          "internalType": "bool",
          "name": "",
          "type": "bool"
        }
      ],
      "stateMutability": "nonpayable",
      "type": "function"
    }
  ],
  "bytecode": "0x60806040526000805534801561001457600080fd5b50600080819055506112138061002b6000396000f3fe608060405234801561001057600080fd5b50600436106100cf5760003560e01c80634fcfd9491161008c578063bed34bba11610066578063bed34bba14610228578063da1712fd14610258578063fc156fe014610276578063ff0e7df5146102a6576100cf565b80634fcfd949146101bc57806393a8333e146101da578063a031fc56146101f8576100cf565b8063261b98a3146100d45780632dcad80d1461010457806335e682451461012257806335f34232146101525780633660096b1461018257806342ecc52a146101a0575b600080fd5b6100ee60048036038101906100e99190610c52565b6102c2565b6040516100fb9190610efd565b60405180910390f35b61010c610325565b6040516101199190610ec0565b60405180910390f35b61013c60048036038101906101379190610c52565b6103b4565b6040516101499190610edb565b60405180910390f35b61016c60048036038101906101679190610c52565b61045c565b6040516101799190610edb565b60405180910390f35b61018a610502565b6040516101979190610efd565b60405180910390f35b6101ba60048036038101906101b59190610c7b565b610508565b005b6101c461066b565b6040516101d19190610ec0565b60405180910390f35b6101e26106d4565b6040516101ef9190610efd565b60405180910390f35b610212600480360381019061020d9190610c52565b6106dd565b60405161021f9190610edb565b60405180910390f35b610242600480360381019061023d9190610be6565b610785565b60405161024f9190610ec0565b60405180910390f35b6102606107de565b60405161026d9190610ec0565b60405180910390f35b610290600480360381019061028b9190610c52565b610832565b60405161029d9190610e9e565b60405180910390f35b6102c060048036038101906102bb9190610ccf565b6108a0565b005b600060026000838152602001908152602001600020600101600081548110610313577f4e487b7100000000000000000000000000000000000000000000000000000000600052603260045260246000fd5b90600052602060002001549050919050565b600061036760086040518060400160405280600b81526020017f4a61736f6e20536d697468000000000000000000000000000000000000000000815250610508565b6103af6040518060400160405280600b81526020017f4a61736f6e20536d6974680000000000000000000000000000000000000000008152506103aa60086106dd565b610785565b905090565b60606001600083815260200190815260200160002060020180546103d79061107c565b80601f01602080910402602001604051908101604052809291908181526020018280546104039061107c565b80156104505780601f1061042557610100808354040283529160200191610450565b820191906000526020600020905b81548152906001019060200180831161043357829003601f168201915b50505050509050919050565b600260205280600052604060002060009150905080600001805461047f9061107c565b80601f01602080910402602001604051908101604052809291908181526020018280546104ab9061107c565b80156104f85780601f106104cd576101008083540402835291602001916104f8565b820191906000526020600020905b8154815290600101906020018083116104db57829003601f168201915b5050505050905081565b60005481565b6040518060400160405280828152602001600767ffffffffffffffff81111561055a577f4e487b7100000000000000000000000000000000000000000000000000000000600052604160045260246000fd5b6040519080825280602002602001820160405280156105885781602001602082028036833780820191505090505b508152506002600084815260200190815260200160002060008201518160000190805190602001906105bb929190610a79565b5060208201518160010190805190602001906105d8929190610aff565b5090505060006002600084815260200190815260200160002060010160008154811061062d577f4e487b7100000000000000000000000000000000000000000000000000000000600052603260045260246000fd5b906000526020600020018190555060016003600084815260200190815260200160002060006101000a81548160ff0219169083151502179055505050565b60006106ad60086040518060400160405280600b81526020017f4a61736f6e20536d697468000000000000000000000000000000000000000000815250610508565b600360006008815260200190815260200160002060009054906101000a900460ff16905090565b60008054905090565b60606002600083815260200190815260200160002060000180546107009061107c565b80601f016020809104026020016040519081016040528092919081815260200182805461072c9061107c565b80156107795780601f1061074e57610100808354040283529160200191610779565b820191906000526020600020905b81548152906001019060200180831161075c57829003601f168201915b50505050509050919050565b6000816040516020016107989190610e87565b60405160208183030381529060405280519060200120836040516020016107bf9190610e87565b6040516020818303038152906040528051906020012014905092915050565b600061082060096040518060400160405280600b81526020017f4a61736f6e20536d697468000000000000000000000000000000000000000000815250610508565b600061082c60096102c2565b14905090565b60606002600083815260200190815260200160002060010180548060200260200160405190810160405280929190818152602001828054801561089457602002820191906000526020600020905b815481526020019060010190808311610880575b50505050509050919050565b6000546002600086815260200190815260200160002060010160016002600088815260200190815260200160002060010160008154811061090a577f4e487b7100000000000000000000000000000000000000000000000000000000600052603260045260246000fd5b906000526020600020015461091f9190610fce565b81548110610956577f4e487b7100000000000000000000000000000000000000000000000000000000600052603260045260246000fd5b9060005260206000200181905550604051806060016040528084815260200183815260200182815250600160008054815260200190815260200160002060008201518160000190805190602001906109af929190610a79565b5060208201518160010190805190602001906109cc929190610a79565b5060408201518160020190805190602001906109e9929190610a79565b5090505060026000858152602001908152602001600020600101600081548110610a3c577f4e487b7100000000000000000000000000000000000000000000000000000000600052603260045260246000fd5b906000526020600020016000815480929190610a57906110df565b9190505550600080815480929190610a6e906110df565b919050555050505050565b828054610a859061107c565b90600052602060002090601f016020900481019282610aa75760008555610aee565b82601f10610ac057805160ff1916838001178555610aee565b82800160010185558215610aee579182015b82811115610aed578251825591602001919060010190610ad2565b5b509050610afb9190610b4c565b5090565b828054828255906000526020600020908101928215610b3b579160200282015b82811115610b3a578251825591602001919060010190610b1f565b5b509050610b489190610b4c565b5090565b5b80821115610b65576000816000905550600101610b4d565b5090565b6000610b7c610b7784610f3d565b610f18565b905082815260208101848484011115610b9457600080fd5b610b9f84828561103a565b509392505050565b600082601f830112610bb857600080fd5b8135610bc8848260208601610b69565b91505092915050565b600081359050610be0816111c6565b92915050565b60008060408385031215610bf957600080fd5b600083013567ffffffffffffffff811115610c1357600080fd5b610c1f85828601610ba7565b925050602083013567ffffffffffffffff811115610c3c57600080fd5b610c4885828601610ba7565b9150509250929050565b600060208284031215610c6457600080fd5b6000610c7284828501610bd1565b91505092915050565b60008060408385031215610c8e57600080fd5b6000610c9c85828601610bd1565b925050602083013567ffffffffffffffff811115610cb957600080fd5b610cc585828601610ba7565b9150509250929050565b60008060008060808587031215610ce557600080fd5b6000610cf387828801610bd1565b945050602085013567ffffffffffffffff811115610d1057600080fd5b610d1c87828801610ba7565b935050604085013567ffffffffffffffff811115610d3957600080fd5b610d4587828801610ba7565b925050606085013567ffffffffffffffff811115610d6257600080fd5b610d6e87828801610ba7565b91505092959194509250565b6000610d868383610e69565b60208301905092915050565b6000610d9d82610f7e565b610da78185610fa1565b9350610db283610f6e565b8060005b83811015610de3578151610dca8882610d7a565b9750610dd583610f94565b925050600181019050610db6565b5085935050505092915050565b610df981611024565b82525050565b6000610e0a82610f89565b610e148185610fb2565b9350610e24818560208601611049565b610e2d816111b5565b840191505092915050565b6000610e4382610f89565b610e4d8185610fc3565b9350610e5d818560208601611049565b80840191505092915050565b610e7281611030565b82525050565b610e8181611030565b82525050565b6000610e938284610e38565b915081905092915050565b60006020820190508181036000830152610eb88184610d92565b905092915050565b6000602082019050610ed56000830184610df0565b92915050565b60006020820190508181036000830152610ef58184610dff565b905092915050565b6000602082019050610f126000830184610e78565b92915050565b6000610f22610f33565b9050610f2e82826110ae565b919050565b6000604051905090565b600067ffffffffffffffff821115610f5857610f57611186565b5b610f61826111b5565b9050602081019050919050565b6000819050602082019050919050565b600081519050919050565b600081519050919050565b6000602082019050919050565b600082825260208201905092915050565b600082825260208201905092915050565b600081905092915050565b6000610fd982611030565b9150610fe483611030565b9250827fffffffffffffffffffffffffffffffffffffffffffffffffffffffffffffffff0382111561101957611018611128565b5b828201905092915050565b60008115159050919050565b6000819050919050565b82818337600083830152505050565b60005b8381101561106757808201518184015260208101905061104c565b83811115611076576000848401525b50505050565b6000600282049050600182168061109457607f821691505b602082108114156110a8576110a7611157565b5b50919050565b6110b7826111b5565b810181811067ffffffffffffffff821117156110d6576110d5611186565b5b80604052505050565b60006110ea82611030565b91507fffffffffffffffffffffffffffffffffffffffffffffffffffffffffffffffff82141561111d5761111c611128565b5b600182019050919050565b7f4e487b7100000000000000000000000000000000000000000000000000000000600052601160045260246000fd5b7f4e487b7100000000000000000000000000000000000000000000000000000000600052602260045260246000fd5b7f4e487b7100000000000000000000000000000000000000000000000000000000600052604160045260246000fd5b6000601f19601f8301169050919050565b6111cf81611030565b81146111da57600080fd5b5056fea26469706673582212203632c304b983fedba79ebb7e0d37af6215f35de1ba6c48d819f6a7f3dd32871064736f6c63430008010033",
  "immutableReferences": {},
  "source": "// SPDX-License-Identifier: MIT\npragma solidity ^0.8.0;\npragma experimental ABIEncoderV2;\n\ncontract Degrees{\n\n  uint public degreeCount = 0;\n\n  struct Deg {\n    string Qualification;\n    string University;\n    string image;\n  }\n\n  struct Student {\n    string Student;\n    uint [] degrees;\n  }\n\n  mapping(uint => Deg) degrees;\n  mapping(uint => Student) public student;\n  mapping(uint => bool) _studentExists;\n\n  constructor() public {\n    degreeCount = 0;\n  }\n\n\n  function addStudent(uint id, string memory sName) public {\n    student[id] = Student(sName, new uint[](7));\n    student[id].degrees[0] = 0;\n    _studentExists[id] = true;\n  }\n\n  function addDegree(uint id, string memory quali, string memory uni, string memory img) public {\n    student[id].degrees[student[id].degrees[0] + 1] = degreeCount;\n    degrees[degreeCount] = Deg(quali, uni, img);\n    student[id].degrees[0]++;\n    degreeCount++;\n  }\n\n  function getDegreeImage(uint num) public view returns (string memory) {\n    return degrees[num].image;\n  }\n\n  function search(uint id) public view returns (uint [] memory) {\n    return student[id].degrees;\n  }\n\n  function searchCount(uint id) public view returns (uint) {\n    return student[id].degrees[0];\n  }\n\n  function Count() public view returns (uint) {\n    return degreeCount;\n  }\n\n  function studentName(uint id) public view returns (string memory) {\n    return student[id].Student;\n  }\n\n  function compareStrings(string memory a, string memory b) public pure returns (bool) {\n    return (keccak256(abi.encodePacked((a))) == keccak256(abi.encodePacked((b))));\n  }\n\n  function echidna_check_add_student() public returns (bool) {\n    addStudent(8, \"Jason Smith\");\n    return(_studentExists[8]);\n  }\n\n  function echidna_check_student_name() public returns (bool) {\n    addStudent(8, \"Jason Smith\");\n    return compareStrings(\"Jason Smith\", studentName(8));\n  }\n\n  function echidna_check_no_degree() public returns (bool) {\n    addStudent(9, \"Jason Smith\");\n    return(searchCount(9) == 0);\n  }\n\n}",
  "sourcePath": "/home/marc/hdd/finProj/bvdm4/src/contracts/Degrees.sol",
  "compiler": {
    "name": "solc",
    "version": "0.8.1+commit.df193b15.Emscripten.clang"
  },
  "schemaVersion": "3.4.3",
  "updatedAt": "2021-11-08T12:57:18.152Z",
  "devdoc": {
    "kind": "dev",
    "methods": {},
    "version": 1
  },
  "userdoc": {
    "kind": "user",
    "methods": {},
    "version": 1
  }
}