{
  "contractName": "Login",
  "abi": [
    {
      "inputs": [],
      "stateMutability": "nonpayable",
      "type": "constructor"
    },
    {
      "inputs": [],
      "name": "UniCount",
      "outputs": [
        {
          "internalType": "uint256",
          "name": "",
          "type": "uint256"
        }
      ],
      "stateMutability": "view",
      "type": "function",
      "constant": true
    },
    {
      "inputs": [
        {
          "internalType": "address",
          "name": "ch",
          "type": "address"
        }
      ],
      "name": "checkLogin",
      "outputs": [
        {
          "internalType": "bool",
          "name": "",
          "type": "bool"
        }
      ],
      "stateMutability": "view",
      "type": "function",
      "constant": true
    },
    {
      "inputs": [
        {
          "internalType": "address",
          "name": "ch",
          "type": "address"
        }
      ],
      "name": "checkValidator",
      "outputs": [
        {
          "internalType": "bool",
          "name": "",
          "type": "bool"
        }
      ],
      "stateMutability": "view",
      "type": "function",
      "constant": true
    },
    {
      "inputs": [
        {
          "internalType": "string",
          "name": "name",
          "type": "string"
        },
        {
          "internalType": "address",
          "name": "newUni",
          "type": "address"
        }
      ],
      "name": "addUni",
      "outputs": [],
      "stateMutability": "nonpayable",
      "type": "function"
    },
    {
      "inputs": [
        {
          "internalType": "address",
          "name": "uadd",
          "type": "address"
        }
      ],
      "name": "getName",
      "outputs": [
        {
          "internalType": "string",
          "name": "",
          "type": "string"
        }
      ],
      "stateMutability": "view",
      "type": "function",
      "constant": true
    }
  ],
  "bytecode": "0x608060405234801561001057600080fd5b506001600360003373ffffffffffffffffffffffffffffffffffffffff1673ffffffffffffffffffffffffffffffffffffffff16815260200190815260200160002060006101000a81548160ff021916908315150217905550600080819055506108a28061007f6000396000f3fe608060405234801561001057600080fd5b50600436106100575760003560e01c80630f0c00361461005c5780635fd4b08a1461007a57806360e85674146100aa578063797327ae146100da578063a5408a401461010a575b600080fd5b610064610126565b60405161007191906105f4565b60405180910390f35b610094600480360381019061008f91906104e3565b61012c565b6040516100a191906105d2565b60405180910390f35b6100c460048036038101906100bf91906104e3565b6101fd565b6040516100d191906105b7565b60405180910390f35b6100f460048036038101906100ef91906104e3565b610253565b60405161010191906105b7565b60405180910390f35b610124600480360381019061011f919061050c565b6102a9565b005b60005481565b6060600160008373ffffffffffffffffffffffffffffffffffffffff1673ffffffffffffffffffffffffffffffffffffffff16815260200190815260200160002080546101789061070b565b80601f01602080910402602001604051908101604052809291908181526020018280546101a49061070b565b80156101f15780601f106101c6576101008083540402835291602001916101f1565b820191906000526020600020905b8154815290600101906020018083116101d457829003601f168201915b50505050509050919050565b6000600260008373ffffffffffffffffffffffffffffffffffffffff1673ffffffffffffffffffffffffffffffffffffffff16815260200190815260200160002060009054906101000a900460ff169050919050565b6000600360008373ffffffffffffffffffffffffffffffffffffffff1673ffffffffffffffffffffffffffffffffffffffff16815260200190815260200160002060009054906101000a900460ff169050919050565b600360003373ffffffffffffffffffffffffffffffffffffffff1673ffffffffffffffffffffffffffffffffffffffff16815260200190815260200160002060009054906101000a900460ff16156103bf5760008081548092919061030d9061076e565b91905055506001600260008373ffffffffffffffffffffffffffffffffffffffff1673ffffffffffffffffffffffffffffffffffffffff16815260200190815260200160002060006101000a81548160ff02191690831515021790555081600160008373ffffffffffffffffffffffffffffffffffffffff1673ffffffffffffffffffffffffffffffffffffffff16815260200190815260200160002090805190602001906103bd9291906103c3565b505b5050565b8280546103cf9061070b565b90600052602060002090601f0160209004810192826103f15760008555610438565b82601f1061040a57805160ff1916838001178555610438565b82800160010185558215610438579182015b8281111561043757825182559160200191906001019061041c565b5b5090506104459190610449565b5090565b5b8082111561046257600081600090555060010161044a565b5090565b600061047961047484610634565b61060f565b90508281526020810184848401111561049157600080fd5b61049c8482856106c9565b509392505050565b6000813590506104b381610855565b92915050565b600082601f8301126104ca57600080fd5b81356104da848260208601610466565b91505092915050565b6000602082840312156104f557600080fd5b6000610503848285016104a4565b91505092915050565b6000806040838503121561051f57600080fd5b600083013567ffffffffffffffff81111561053957600080fd5b610545858286016104b9565b9250506020610556858286016104a4565b9150509250929050565b61056981610693565b82525050565b600061057a82610665565b6105848185610670565b93506105948185602086016106d8565b61059d81610844565b840191505092915050565b6105b1816106bf565b82525050565b60006020820190506105cc6000830184610560565b92915050565b600060208201905081810360008301526105ec818461056f565b905092915050565b600060208201905061060960008301846105a8565b92915050565b600061061961062a565b9050610625828261073d565b919050565b6000604051905090565b600067ffffffffffffffff82111561064f5761064e610815565b5b61065882610844565b9050602081019050919050565b600081519050919050565b600082825260208201905092915050565b600061068c8261069f565b9050919050565b60008115159050919050565b600073ffffffffffffffffffffffffffffffffffffffff82169050919050565b6000819050919050565b82818337600083830152505050565b60005b838110156106f65780820151818401526020810190506106db565b83811115610705576000848401525b50505050565b6000600282049050600182168061072357607f821691505b60208210811415610737576107366107e6565b5b50919050565b61074682610844565b810181811067ffffffffffffffff8211171561076557610764610815565b5b80604052505050565b6000610779826106bf565b91507fffffffffffffffffffffffffffffffffffffffffffffffffffffffffffffffff8214156107ac576107ab6107b7565b5b600182019050919050565b7f4e487b7100000000000000000000000000000000000000000000000000000000600052601160045260246000fd5b7f4e487b7100000000000000000000000000000000000000000000000000000000600052602260045260246000fd5b7f4e487b7100000000000000000000000000000000000000000000000000000000600052604160045260246000fd5b6000601f19601f8301169050919050565b61085e81610681565b811461086957600080fd5b5056fea2646970667358221220260a239c4eda6304c449f7dc8f45c5b6427470f171fe6a9cec418ce83c34b4dd64736f6c63430008010033",
  "immutableReferences": {},
  "source": "// SPDX-License-Identifier: MIT\npragma solidity ^0.8.0;\n\ncontract Login {\n\n    uint public UniCount;\n\n    mapping(address => string) UniNames;\n    mapping(address => bool) Universities;\n    mapping(address => bool) validator;\n\n    constructor() {\n        validator[msg.sender] = true;\n        UniCount = 0;\n    }\n\n    function checkLogin(address ch) public view returns (bool) {\n        return Universities[ch];\n    }\n\n    function checkValidator(address ch) public view returns (bool) {\n        return validator[ch];\n    }\n\n    function addUni(string memory name, address newUni) public {\n        if (validator[msg.sender]) {\n            UniCount++;\n            Universities[newUni] = true;\n            UniNames[newUni] = name;\n        }\n    }\n\n    function getName(address uadd) public view returns (string memory) {\n        return UniNames[uadd];\n    }\n\n    /*ECHIDNA TESTS*/\n\n    // function compareStrings(string memory a, string memory b) public pure returns (bool) {\n    //     return (keccak256(abi.encodePacked((a))) == keccak256(abi.encodePacked((b))));\n    // }\n\n    // function echidna_check_validator() public view returns (bool) {\n    //     return checkValidator(msg.sender);\n    // }\n\n    // function echidna_check_add_login() public returns (bool) {\n    //     addUni(\"Stellenbosch University\", msg.sender);\n    //     return checkLogin(msg.sender);\n    // }\n\n    // function echidna_check_name() public returns (bool) {\n    //     addUni(\"Stellenbosch University\", msg.sender);\n    //     return compareStrings(UniNames[msg.sender], \"Stellenbosch University\");\n    // }\n\n\n}",
  "sourcePath": "/home/marc/hdd/finProj/bvdm4/src/contracts/Login.sol",
  "compiler": {
    "name": "solc",
    "version": "0.8.1+commit.df193b15.Emscripten.clang"
  },
  "schemaVersion": "3.4.3",
  "updatedAt": "2021-11-08T12:57:19.335Z",
  "networkType": "ethereum",
  "devdoc": {
    "kind": "dev",
    "methods": {},
    "version": 1
  },
  "userdoc": {
    "kind": "user",
    "methods": {},
    "version": 1
  }
}