{
  "contractName": "NFTDegrees",
  "abi": [
    {
      "inputs": [],
      "stateMutability": "nonpayable",
      "type": "constructor"
    },
    {
      "anonymous": false,
      "inputs": [
        {
          "indexed": true,
          "internalType": "address",
          "name": "owner",
          "type": "address"
        },
        {
          "indexed": true,
          "internalType": "address",
          "name": "approved",
          "type": "address"
        },
        {
          "indexed": true,
          "internalType": "uint256",
          "name": "tokenId",
          "type": "uint256"
        }
      ],
      "name": "Approval",
      "type": "event"
    },
    {
      "anonymous": false,
      "inputs": [
        {
          "indexed": true,
          "internalType": "address",
          "name": "owner",
          "type": "address"
        },
        {
          "indexed": true,
          "internalType": "address",
          "name": "operator",
          "type": "address"
        },
        {
          "indexed": false,
          "internalType": "bool",
          "name": "approved",
          "type": "bool"
        }
      ],
      "name": "ApprovalForAll",
      "type": "event"
    },
    {
      "anonymous": false,
      "inputs": [
        {
          "indexed": true,
          "internalType": "address",
          "name": "from",
          "type": "address"
        },
        {
          "indexed": true,
          "internalType": "address",
          "name": "to",
          "type": "address"
        },
        {
          "indexed": true,
          "internalType": "uint256",
          "name": "tokenId",
          "type": "uint256"
        }
      ],
      "name": "Transfer",
      "type": "event"
    },
    {
      "inputs": [
        {
          "internalType": "address",
          "name": "to",
          "type": "address"
        },
        {
          "internalType": "uint256",
          "name": "tokenId",
          "type": "uint256"
        }
      ],
      "name": "approve",
      "outputs": [],
      "stateMutability": "nonpayable",
      "type": "function"
    },
    {
      "inputs": [
        {
          "internalType": "address",
          "name": "owner",
          "type": "address"
        }
      ],
      "name": "balanceOf",
      "outputs": [
        {
          "internalType": "uint256",
          "name": "",
          "type": "uint256"
        }
      ],
      "stateMutability": "view",
      "type": "function",
      "constant": true
    },
    {
      "inputs": [],
      "name": "degreeCount",
      "outputs": [
        {
          "internalType": "uint256",
          "name": "",
          "type": "uint256"
        }
      ],
      "stateMutability": "view",
      "type": "function",
      "constant": true
    },
    {
      "inputs": [
        {
          "internalType": "uint256",
          "name": "tokenId",
          "type": "uint256"
        }
      ],
      "name": "getApproved",
      "outputs": [
        {
          "internalType": "address",
          "name": "",
          "type": "address"
        }
      ],
      "stateMutability": "view",
      "type": "function",
      "constant": true
    },
    {
      "inputs": [
        {
          "internalType": "address",
          "name": "owner",
          "type": "address"
        },
        {
          "internalType": "address",
          "name": "operator",
          "type": "address"
        }
      ],
      "name": "isApprovedForAll",
      "outputs": [
        {
          "internalType": "bool",
          "name": "",
          "type": "bool"
        }
      ],
      "stateMutability": "view",
      "type": "function",
      "constant": true
    },
    {
      "inputs": [],
      "name": "name",
      "outputs": [
        {
          "internalType": "string",
          "name": "",
          "type": "string"
        }
      ],
      "stateMutability": "view",
      "type": "function",
      "constant": true
    },
    {
      "inputs": [
        {
          "internalType": "uint256",
          "name": "tokenId",
          "type": "uint256"
        }
      ],
      "name": "ownerOf",
      "outputs": [
        {
          "internalType": "address",
          "name": "",
          "type": "address"
        }
      ],
      "stateMutability": "view",
      "type": "function",
      "constant": true
    },
    {
      "inputs": [
        {
          "internalType": "address",
          "name": "from",
          "type": "address"
        },
        {
          "internalType": "address",
          "name": "to",
          "type": "address"
        },
        {
          "internalType": "uint256",
          "name": "tokenId",
          "type": "uint256"
        }
      ],
      "name": "safeTransferFrom",
      "outputs": [],
      "stateMutability": "nonpayable",
      "type": "function"
    },
    {
      "inputs": [
        {
          "internalType": "address",
          "name": "from",
          "type": "address"
        },
        {
          "internalType": "address",
          "name": "to",
          "type": "address"
        },
        {
          "internalType": "uint256",
          "name": "tokenId",
          "type": "uint256"
        },
        {
          "internalType": "bytes",
          "name": "_data",
          "type": "bytes"
        }
      ],
      "name": "safeTransferFrom",
      "outputs": [],
      "stateMutability": "nonpayable",
      "type": "function"
    },
    {
      "inputs": [
        {
          "internalType": "address",
          "name": "operator",
          "type": "address"
        },
        {
          "internalType": "bool",
          "name": "approved",
          "type": "bool"
        }
      ],
      "name": "setApprovalForAll",
      "outputs": [],
      "stateMutability": "nonpayable",
      "type": "function"
    },
    {
      "inputs": [
        {
          "internalType": "uint256",
          "name": "",
          "type": "uint256"
        }
      ],
      "name": "student",
      "outputs": [
        {
          "internalType": "string",
          "name": "Student",
          "type": "string"
        }
      ],
      "stateMutability": "view",
      "type": "function",
      "constant": true
    },
    {
      "inputs": [
        {
          "internalType": "bytes4",
          "name": "interfaceId",
          "type": "bytes4"
        }
      ],
      "name": "supportsInterface",
      "outputs": [
        {
          "internalType": "bool",
          "name": "",
          "type": "bool"
        }
      ],
      "stateMutability": "view",
      "type": "function",
      "constant": true
    },
    {
      "inputs": [],
      "name": "symbol",
      "outputs": [
        {
          "internalType": "string",
          "name": "",
          "type": "string"
        }
      ],
      "stateMutability": "view",
      "type": "function",
      "constant": true
    },
    {
      "inputs": [
        {
          "internalType": "uint256",
          "name": "tokenId",
          "type": "uint256"
        }
      ],
      "name": "tokenURI",
      "outputs": [
        {
          "internalType": "string",
          "name": "",
          "type": "string"
        }
      ],
      "stateMutability": "view",
      "type": "function",
      "constant": true
    },
    {
      "inputs": [
        {
          "internalType": "address",
          "name": "from",
          "type": "address"
        },
        {
          "internalType": "address",
          "name": "to",
          "type": "address"
        },
        {
          "internalType": "uint256",
          "name": "tokenId",
          "type": "uint256"
        }
      ],
      "name": "transferFrom",
      "outputs": [],
      "stateMutability": "nonpayable",
      "type": "function"
    },
    {
      "inputs": [
        {
          "internalType": "uint256",
          "name": "id",
          "type": "uint256"
        },
        {
          "internalType": "address",
          "name": "toAdd",
          "type": "address"
        }
      ],
      "name": "transfer",
      "outputs": [],
      "stateMutability": "nonpayable",
      "type": "function"
    },
    {
      "inputs": [
        {
          "internalType": "uint256",
          "name": "id",
          "type": "uint256"
        }
      ],
      "name": "owner",
      "outputs": [
        {
          "internalType": "address",
          "name": "",
          "type": "address"
        }
      ],
      "stateMutability": "view",
      "type": "function",
      "constant": true
    },
    {
      "inputs": [
        {
          "internalType": "uint256",
          "name": "id",
          "type": "uint256"
        },
        {
          "internalType": "string",
          "name": "sName",
          "type": "string"
        }
      ],
      "name": "addStudent",
      "outputs": [],
      "stateMutability": "nonpayable",
      "type": "function"
    },
    {
      "inputs": [
        {
          "internalType": "uint256",
          "name": "id",
          "type": "uint256"
        },
        {
          "internalType": "string",
          "name": "quali",
          "type": "string"
        },
        {
          "internalType": "string",
          "name": "uni",
          "type": "string"
        },
        {
          "internalType": "string",
          "name": "img",
          "type": "string"
        }
      ],
      "name": "addDegree",
      "outputs": [],
      "stateMutability": "nonpayable",
      "type": "function"
    },
    {
      "inputs": [
        {
          "internalType": "uint256",
          "name": "num",
          "type": "uint256"
        }
      ],
      "name": "getDegreeImage",
      "outputs": [
        {
          "internalType": "string",
          "name": "",
          "type": "string"
        }
      ],
      "stateMutability": "view",
      "type": "function",
      "constant": true
    },
    {
      "inputs": [
        {
          "internalType": "uint256",
          "name": "id",
          "type": "uint256"
        }
      ],
      "name": "search",
      "outputs": [
        {
          "internalType": "uint256[]",
          "name": "",
          "type": "uint256[]"
        }
      ],
      "stateMutability": "view",
      "type": "function",
      "constant": true
    },
    {
      "inputs": [
        {
          "internalType": "uint256",
          "name": "id",
          "type": "uint256"
        }
      ],
      "name": "searchCount",
      "outputs": [
        {
          "internalType": "uint256",
          "name": "",
          "type": "uint256"
        }
      ],
      "stateMutability": "view",
      "type": "function",
      "constant": true
    },
    {
      "inputs": [
        {
          "internalType": "uint256",
          "name": "id",
          "type": "uint256"
        }
      ],
      "name": "studentExists",
      "outputs": [
        {
          "internalType": "bool",
          "name": "",
          "type": "bool"
        }
      ],
      "stateMutability": "view",
      "type": "function",
      "constant": true
    },
    {
      "inputs": [],
      "name": "Count",
      "outputs": [
        {
          "internalType": "uint256",
          "name": "",
          "type": "uint256"
        }
      ],
      "stateMutability": "view",
      "type": "function",
      "constant": true
    },
    {
      "inputs": [
        {
          "internalType": "uint256",
          "name": "id",
          "type": "uint256"
        }
      ],
      "name": "studentName",
      "outputs": [
        {
          "internalType": "string",
          "name": "",
          "type": "string"
        }
      ],
      "stateMutability": "view",
      "type": "function",
      "constant": true
    }
  ],
  "bytecode": "0x608060405260006006553480156200001657600080fd5b506040518060400160405280600781526020017f44656772656573000000000000000000000000000000000000000000000000008152506040518060400160405280600781526020017f444547524545530000000000000000000000000000000000000000000000000081525081600090805190602001906200009b929190620000c5565b508060019080519060200190620000b4929190620000c5565b5050506000600681905550620001da565b828054620000d39062000175565b90600052602060002090601f016020900481019282620000f7576000855562000143565b82601f106200011257805160ff191683800117855562000143565b8280016001018555821562000143579182015b828111156200014257825182559160200191906001019062000125565b5b50905062000152919062000156565b5090565b5b808211156200017157600081600090555060010162000157565b5090565b600060028204905060018216806200018e57607f821691505b60208210811415620001a557620001a4620001ab565b5b50919050565b7f4e487b7100000000000000000000000000000000000000000000000000000000600052602260045260246000fd5b61342180620001ea6000396000f3fe608060405234801561001057600080fd5b50600436106101735760003560e01c806370a08231116100de578063b7760c8f11610097578063e985e9c511610071578063e985e9c514610494578063fc156fe0146104c4578063fd38fb15146104f4578063ff0e7df51461052457610173565b8063b7760c8f1461042c578063b88d4fde14610448578063c87b56dd1461046457610173565b806370a082311461034457806393a8333e1461037457806395d89b4114610392578063a031fc56146103b0578063a123c33e146103e0578063a22cb4651461041057610173565b806335e682451161013057806335e682451461025e57806335f342321461028e5780633660096b146102be57806342842e0e146102dc57806342ecc52a146102f85780636352211e1461031457610173565b806301ffc9a71461017857806306fdde03146101a8578063081812fc146101c6578063095ea7b3146101f657806323b872dd14610212578063261b98a31461022e575b600080fd5b610192600480360381019061018d91906123c0565b610540565b60405161019f9190612979565b60405180910390f35b6101b0610622565b6040516101bd9190612994565b60405180910390f35b6101e060048036038101906101db9190612412565b6106b4565b6040516101ed91906128f0565b60405180910390f35b610210600480360381019061020b9190612384565b610739565b005b61022c6004803603810190610227919061227e565b610851565b005b61024860048036038101906102439190612412565b6108b1565b6040516102559190612b76565b60405180910390f35b61027860048036038101906102739190612412565b61093e565b6040516102859190612994565b60405180910390f35b6102a860048036038101906102a39190612412565b6109e6565b6040516102b59190612994565b60405180910390f35b6102c6610a8c565b6040516102d39190612b76565b60405180910390f35b6102f660048036038101906102f1919061227e565b610a92565b005b610312600480360381019061030d9190612477565b610ab2565b005b61032e60048036038101906103299190612412565b610c15565b60405161033b91906128f0565b60405180910390f35b61035e60048036038101906103599190612219565b610cc7565b60405161036b9190612b76565b60405180910390f35b61037c610d7f565b6040516103899190612b76565b60405180910390f35b61039a610d89565b6040516103a79190612994565b60405180910390f35b6103ca60048036038101906103c59190612412565b610e1b565b6040516103d79190612994565b60405180910390f35b6103fa60048036038101906103f59190612412565b610eed565b60405161040791906128f0565b60405180910390f35b61042a60048036038101906104259190612348565b610eff565b005b6104466004803603810190610441919061243b565b611080565b005b610462600480360381019061045d91906122cd565b611097565b005b61047e60048036038101906104799190612412565b6110f9565b60405161048b9190612994565b60405180910390f35b6104ae60048036038101906104a99190612242565b6111a0565b6040516104bb9190612979565b60405180910390f35b6104de60048036038101906104d99190612412565b611234565b6040516104eb9190612957565b60405180910390f35b61050e60048036038101906105099190612412565b6112cc565b60405161051b9190612979565b60405180910390f35b61053e600480360381019061053991906124cb565b6112f6565b005b60007f80ac58cd000000000000000000000000000000000000000000000000000000007bffffffffffffffffffffffffffffffffffffffffffffffffffffffff1916827bffffffffffffffffffffffffffffffffffffffffffffffffffffffff1916148061060b57507f5b5e139f000000000000000000000000000000000000000000000000000000007bffffffffffffffffffffffffffffffffffffffffffffffffffffffff1916827bffffffffffffffffffffffffffffffffffffffffffffffffffffffff1916145b8061061b575061061a82611507565b5b9050919050565b60606000805461063190612e05565b80601f016020809104026020016040519081016040528092919081815260200182805461065d90612e05565b80156106aa5780601f1061067f576101008083540402835291602001916106aa565b820191906000526020600020905b81548152906001019060200180831161068d57829003601f168201915b5050505050905090565b60006106bf82611571565b6106fe576040517f08c379a00000000000000000000000000000000000000000000000000000000081526004016106f590612ad6565b60405180910390fd5b6004600083815260200190815260200160002060009054906101000a900473ffffffffffffffffffffffffffffffffffffffff169050919050565b600061074482610c15565b90508073ffffffffffffffffffffffffffffffffffffffff168373ffffffffffffffffffffffffffffffffffffffff1614156107b5576040517f08c379a00000000000000000000000000000000000000000000000000000000081526004016107ac90612b36565b60405180910390fd5b8073ffffffffffffffffffffffffffffffffffffffff166107d46115dd565b73ffffffffffffffffffffffffffffffffffffffff1614806108035750610802816107fd6115dd565b6111a0565b5b610842576040517f08c379a000000000000000000000000000000000000000000000000000000000815260040161083990612a56565b60405180910390fd5b61084c83836115e5565b505050565b61086261085c6115dd565b8261169e565b6108a1576040517f08c379a000000000000000000000000000000000000000000000000000000000815260040161089890612b56565b60405180910390fd5b6108ac83838361177c565b505050565b6000600a600083815260200190815260200160002060009054906101000a900460ff166108dd57600080fd5b6009600083815260200190815260200160002060010160008154811061092c577f4e487b7100000000000000000000000000000000000000000000000000000000600052603260045260246000fd5b90600052602060002001549050919050565b606060086000838152602001908152602001600020600201805461096190612e05565b80601f016020809104026020016040519081016040528092919081815260200182805461098d90612e05565b80156109da5780601f106109af576101008083540402835291602001916109da565b820191906000526020600020905b8154815290600101906020018083116109bd57829003601f168201915b50505050509050919050565b6009602052806000526040600020600091509050806000018054610a0990612e05565b80601f0160208091040260200160405190810160405280929190818152602001828054610a3590612e05565b8015610a825780601f10610a5757610100808354040283529160200191610a82565b820191906000526020600020905b815481529060010190602001808311610a6557829003601f168201915b5050505050905081565b60065481565b610aad83838360405180602001604052806000815250611097565b505050565b6040518060400160405280828152602001600767ffffffffffffffff811115610b04577f4e487b7100000000000000000000000000000000000000000000000000000000600052604160045260246000fd5b604051908082528060200260200182016040528015610b325781602001602082028036833780820191505090505b50815250600960008481526020019081526020016000206000820151816000019080519060200190610b65929190611ff0565b506020820151816001019080519060200190610b82929190612076565b50905050600060096000848152602001908152602001600020600101600081548110610bd7577f4e487b7100000000000000000000000000000000000000000000000000000000600052603260045260246000fd5b90600052602060002001819055506001600a600084815260200190815260200160002060006101000a81548160ff0219169083151502179055505050565b6000806002600084815260200190815260200160002060009054906101000a900473ffffffffffffffffffffffffffffffffffffffff169050600073ffffffffffffffffffffffffffffffffffffffff168173ffffffffffffffffffffffffffffffffffffffff161415610cbe576040517f08c379a0000000000000000000000000000000000000000000000000000000008152600401610cb590612a96565b60405180910390fd5b80915050919050565b60008073ffffffffffffffffffffffffffffffffffffffff168273ffffffffffffffffffffffffffffffffffffffff161415610d38576040517f08c379a0000000000000000000000000000000000000000000000000000000008152600401610d2f90612a76565b60405180910390fd5b600360008373ffffffffffffffffffffffffffffffffffffffff1673ffffffffffffffffffffffffffffffffffffffff168152602001908152602001600020549050919050565b6000600654905090565b606060018054610d9890612e05565b80601f0160208091040260200160405190810160405280929190818152602001828054610dc490612e05565b8015610e115780601f10610de657610100808354040283529160200191610e11565b820191906000526020600020905b815481529060010190602001808311610df457829003601f168201915b5050505050905090565b6060600a600083815260200190815260200160002060009054906101000a900460ff16610e4757600080fd5b600960008381526020019081526020016000206000018054610e6890612e05565b80601f0160208091040260200160405190810160405280929190818152602001828054610e9490612e05565b8015610ee15780601f10610eb657610100808354040283529160200191610ee1565b820191906000526020600020905b815481529060010190602001808311610ec457829003601f168201915b50505050509050919050565b6000610ef882610c15565b9050919050565b610f076115dd565b73ffffffffffffffffffffffffffffffffffffffff168273ffffffffffffffffffffffffffffffffffffffff161415610f75576040517f08c379a0000000000000000000000000000000000000000000000000000000008152600401610f6c90612a16565b60405180910390fd5b8060056000610f826115dd565b73ffffffffffffffffffffffffffffffffffffffff1673ffffffffffffffffffffffffffffffffffffffff16815260200190815260200160002060008473ffffffffffffffffffffffffffffffffffffffff1673ffffffffffffffffffffffffffffffffffffffff16815260200190815260200160002060006101000a81548160ff0219169083151502179055508173ffffffffffffffffffffffffffffffffffffffff1661102f6115dd565b73ffffffffffffffffffffffffffffffffffffffff167f17307eab39ab6107e8899845ad3d59bd9653f200f220920489ca2b5937696c31836040516110749190612979565b60405180910390a35050565b61109361108c83610eed565b8284610851565b5050565b6110a86110a26115dd565b8361169e565b6110e7576040517f08c379a00000000000000000000000000000000000000000000000000000000081526004016110de90612b56565b60405180910390fd5b6110f3848484846119d8565b50505050565b606061110482611571565b611143576040517f08c379a000000000000000000000000000000000000000000000000000000000815260040161113a90612b16565b60405180910390fd5b600061114d611a34565b9050600081511161116d5760405180602001604052806000815250611198565b8061117784611a4b565b6040516020016111889291906128cc565b6040516020818303038152906040525b915050919050565b6000600560008473ffffffffffffffffffffffffffffffffffffffff1673ffffffffffffffffffffffffffffffffffffffff16815260200190815260200160002060008373ffffffffffffffffffffffffffffffffffffffff1673ffffffffffffffffffffffffffffffffffffffff16815260200190815260200160002060009054906101000a900460ff16905092915050565b6060600a600083815260200190815260200160002060009054906101000a900460ff1661126057600080fd5b600960008381526020019081526020016000206001018054806020026020016040519081016040528092919081815260200182805480156112c057602002820191906000526020600020905b8154815260200190600101908083116112ac575b50505050509050919050565b6000600a600083815260200190815260200160002060009054906101000a900460ff169050919050565b600a600085815260200190815260200160002060009054906101000a900460ff1661132057600080fd5b6006546009600086815260200190815260200160002060010160016009600088815260200190815260200160002060010160008154811061138a577f4e487b7100000000000000000000000000000000000000000000000000000000600052603260045260246000fd5b906000526020600020015461139f9190612c94565b815481106113d6577f4e487b7100000000000000000000000000000000000000000000000000000000600052603260045260246000fd5b90600052602060002001819055506040518060600160405280848152602001838152602001828152506008600060065481526020019081526020016000206000820151816000019080519060200190611430929190611ff0565b50602082015181600101908051906020019061144d929190611ff0565b50604082015181600201908051906020019061146a929190611ff0565b50905050600960008581526020019081526020016000206001016000815481106114bd577f4e487b7100000000000000000000000000000000000000000000000000000000600052603260045260246000fd5b9060005260206000200160008154809291906114d890612e68565b91905055506114e981600654611bf8565b600660008154809291906114fc90612e68565b919050555050505050565b60007f01ffc9a7000000000000000000000000000000000000000000000000000000007bffffffffffffffffffffffffffffffffffffffffffffffffffffffff1916827bffffffffffffffffffffffffffffffffffffffffffffffffffffffff1916149050919050565b60008073ffffffffffffffffffffffffffffffffffffffff166002600084815260200190815260200160002060009054906101000a900473ffffffffffffffffffffffffffffffffffffffff1673ffffffffffffffffffffffffffffffffffffffff1614159050919050565b600033905090565b816004600083815260200190815260200160002060006101000a81548173ffffffffffffffffffffffffffffffffffffffff021916908373ffffffffffffffffffffffffffffffffffffffff160217905550808273ffffffffffffffffffffffffffffffffffffffff1661165883610c15565b73ffffffffffffffffffffffffffffffffffffffff167f8c5be1e5ebec7d5bd14f71427d1e84f3dd0314c0f7b2291e5b200ac8c7c3b92560405160405180910390a45050565b60006116a982611571565b6116e8576040517f08c379a00000000000000000000000000000000000000000000000000000000081526004016116df90612a36565b60405180910390fd5b60006116f383610c15565b90508073ffffffffffffffffffffffffffffffffffffffff168473ffffffffffffffffffffffffffffffffffffffff16148061176257508373ffffffffffffffffffffffffffffffffffffffff1661174a846106b4565b73ffffffffffffffffffffffffffffffffffffffff16145b80611773575061177281856111a0565b5b91505092915050565b8273ffffffffffffffffffffffffffffffffffffffff1661179c82610c15565b73ffffffffffffffffffffffffffffffffffffffff16146117f2576040517f08c379a00000000000000000000000000000000000000000000000000000000081526004016117e990612af6565b60405180910390fd5b600073ffffffffffffffffffffffffffffffffffffffff168273ffffffffffffffffffffffffffffffffffffffff161415611862576040517f08c379a0000000000000000000000000000000000000000000000000000000008152600401611859906129f6565b60405180910390fd5b61186d838383611c73565b6118786000826115e5565b6001600360008573ffffffffffffffffffffffffffffffffffffffff1673ffffffffffffffffffffffffffffffffffffffff16815260200190815260200160002060008282546118c89190612d1b565b925050819055506001600360008473ffffffffffffffffffffffffffffffffffffffff1673ffffffffffffffffffffffffffffffffffffffff168152602001908152602001600020600082825461191f9190612c94565b92505081905550816002600083815260200190815260200160002060006101000a81548173ffffffffffffffffffffffffffffffffffffffff021916908373ffffffffffffffffffffffffffffffffffffffff160217905550808273ffffffffffffffffffffffffffffffffffffffff168473ffffffffffffffffffffffffffffffffffffffff167fddf252ad1be2c89b69c2b068fc378daa952ba7f163c4a11628f55a4df523b3ef60405160405180910390a4505050565b6119e384848461177c565b6119ef84848484611c78565b611a2e576040517f08c379a0000000000000000000000000000000000000000000000000000000008152600401611a25906129b6565b60405180910390fd5b50505050565b606060405180602001604052806000815250905090565b60606000821415611a93576040518060400160405280600181526020017f30000000000000000000000000000000000000000000000000000000000000008152509050611bf3565b600082905060005b60008214611ac5578080611aae90612e68565b915050600a82611abe9190612cea565b9150611a9b565b60008167ffffffffffffffff811115611b07577f4e487b7100000000000000000000000000000000000000000000000000000000600052604160045260246000fd5b6040519080825280601f01601f191660200182016040528015611b395781602001600182028036833780820191505090505b5090505b60008514611bec57600182611b529190612d1b565b9150600a85611b619190612eb1565b6030611b6d9190612c94565b60f81b818381518110611ba9577f4e487b7100000000000000000000000000000000000000000000000000000000600052603260045260246000fd5b60200101907effffffffffffffffffffffffffffffffffffffffffffffffffffffffffffff1916908160001a905350600a85611be59190612cea565b9450611b3d565b8093505050505b919050565b600782604051611c0891906128b5565b908152602001604051809103902060009054906101000a900460ff1615611c2e57600080fd5b611c383382611e0f565b6001600783604051611c4a91906128b5565b908152602001604051809103902060006101000a81548160ff0219169083151502179055505050565b505050565b6000611c998473ffffffffffffffffffffffffffffffffffffffff16611fdd565b15611e02578373ffffffffffffffffffffffffffffffffffffffff1663150b7a02611cc26115dd565b8786866040518563ffffffff1660e01b8152600401611ce4949392919061290b565b602060405180830381600087803b158015611cfe57600080fd5b505af1925050508015611d2f57506040513d601f19601f82011682018060405250810190611d2c91906123e9565b60015b611db2573d8060008114611d5f576040519150601f19603f3d011682016040523d82523d6000602084013e611d64565b606091505b50600081511415611daa576040517f08c379a0000000000000000000000000000000000000000000000000000000008152600401611da1906129b6565b60405180910390fd5b805181602001fd5b63150b7a0260e01b7bffffffffffffffffffffffffffffffffffffffffffffffffffffffff1916817bffffffffffffffffffffffffffffffffffffffffffffffffffffffff191614915050611e07565b600190505b949350505050565b600073ffffffffffffffffffffffffffffffffffffffff168273ffffffffffffffffffffffffffffffffffffffff161415611e7f576040517f08c379a0000000000000000000000000000000000000000000000000000000008152600401611e7690612ab6565b60405180910390fd5b611e8881611571565b15611ec8576040517f08c379a0000000000000000000000000000000000000000000000000000000008152600401611ebf906129d6565b60405180910390fd5b611ed460008383611c73565b6001600360008473ffffffffffffffffffffffffffffffffffffffff1673ffffffffffffffffffffffffffffffffffffffff1681526020019081526020016000206000828254611f249190612c94565b92505081905550816002600083815260200190815260200160002060006101000a81548173ffffffffffffffffffffffffffffffffffffffff021916908373ffffffffffffffffffffffffffffffffffffffff160217905550808273ffffffffffffffffffffffffffffffffffffffff16600073ffffffffffffffffffffffffffffffffffffffff167fddf252ad1be2c89b69c2b068fc378daa952ba7f163c4a11628f55a4df523b3ef60405160405180910390a45050565b600080823b905060008111915050919050565b828054611ffc90612e05565b90600052602060002090601f01602090048101928261201e5760008555612065565b82601f1061203757805160ff1916838001178555612065565b82800160010185558215612065579182015b82811115612064578251825591602001919060010190612049565b5b50905061207291906120c3565b5090565b8280548282559060005260206000209081019282156120b2579160200282015b828111156120b1578251825591602001919060010190612096565b5b5090506120bf91906120c3565b5090565b5b808211156120dc5760008160009055506001016120c4565b5090565b60006120f36120ee84612bb6565b612b91565b90508281526020810184848401111561210b57600080fd5b612116848285612dc3565b509392505050565b600061213161212c84612be7565b612b91565b90508281526020810184848401111561214957600080fd5b612154848285612dc3565b509392505050565b60008135905061216b8161338f565b92915050565b600081359050612180816133a6565b92915050565b600081359050612195816133bd565b92915050565b6000815190506121aa816133bd565b92915050565b600082601f8301126121c157600080fd5b81356121d18482602086016120e0565b91505092915050565b600082601f8301126121eb57600080fd5b81356121fb84826020860161211e565b91505092915050565b600081359050612213816133d4565b92915050565b60006020828403121561222b57600080fd5b60006122398482850161215c565b91505092915050565b6000806040838503121561225557600080fd5b60006122638582860161215c565b92505060206122748582860161215c565b9150509250929050565b60008060006060848603121561229357600080fd5b60006122a18682870161215c565b93505060206122b28682870161215c565b92505060406122c386828701612204565b9150509250925092565b600080600080608085870312156122e357600080fd5b60006122f18782880161215c565b94505060206123028782880161215c565b935050604061231387828801612204565b925050606085013567ffffffffffffffff81111561233057600080fd5b61233c878288016121b0565b91505092959194509250565b6000806040838503121561235b57600080fd5b60006123698582860161215c565b925050602061237a85828601612171565b9150509250929050565b6000806040838503121561239757600080fd5b60006123a58582860161215c565b92505060206123b685828601612204565b9150509250929050565b6000602082840312156123d257600080fd5b60006123e084828501612186565b91505092915050565b6000602082840312156123fb57600080fd5b60006124098482850161219b565b91505092915050565b60006020828403121561242457600080fd5b600061243284828501612204565b91505092915050565b6000806040838503121561244e57600080fd5b600061245c85828601612204565b925050602061246d8582860161215c565b9150509250929050565b6000806040838503121561248a57600080fd5b600061249885828601612204565b925050602083013567ffffffffffffffff8111156124b557600080fd5b6124c1858286016121da565b9150509250929050565b600080600080608085870312156124e157600080fd5b60006124ef87828801612204565b945050602085013567ffffffffffffffff81111561250c57600080fd5b612518878288016121da565b935050604085013567ffffffffffffffff81111561253557600080fd5b612541878288016121da565b925050606085013567ffffffffffffffff81111561255e57600080fd5b61256a878288016121da565b91505092959194509250565b60006125828383612897565b60208301905092915050565b61259781612d4f565b82525050565b60006125a882612c28565b6125b28185612c56565b93506125bd83612c18565b8060005b838110156125ee5781516125d58882612576565b97506125e083612c49565b9250506001810190506125c1565b5085935050505092915050565b61260481612d61565b82525050565b600061261582612c33565b61261f8185612c67565b935061262f818560208601612dd2565b61263881612f9e565b840191505092915050565b600061264e82612c3e565b6126588185612c78565b9350612668818560208601612dd2565b61267181612f9e565b840191505092915050565b600061268782612c3e565b6126918185612c89565b93506126a1818560208601612dd2565b80840191505092915050565b60006126ba603283612c78565b91506126c582612faf565b604082019050919050565b60006126dd601c83612c78565b91506126e882612ffe565b602082019050919050565b6000612700602483612c78565b915061270b82613027565b604082019050919050565b6000612723601983612c78565b915061272e82613076565b602082019050919050565b6000612746602c83612c78565b91506127518261309f565b604082019050919050565b6000612769603883612c78565b9150612774826130ee565b604082019050919050565b600061278c602a83612c78565b91506127978261313d565b604082019050919050565b60006127af602983612c78565b91506127ba8261318c565b604082019050919050565b60006127d2602083612c78565b91506127dd826131db565b602082019050919050565b60006127f5602c83612c78565b915061280082613204565b604082019050919050565b6000612818602983612c78565b915061282382613253565b604082019050919050565b600061283b602f83612c78565b9150612846826132a2565b604082019050919050565b600061285e602183612c78565b9150612869826132f1565b604082019050919050565b6000612881603183612c78565b915061288c82613340565b604082019050919050565b6128a081612db9565b82525050565b6128af81612db9565b82525050565b60006128c1828461267c565b915081905092915050565b60006128d8828561267c565b91506128e4828461267c565b91508190509392505050565b6000602082019050612905600083018461258e565b92915050565b6000608082019050612920600083018761258e565b61292d602083018661258e565b61293a60408301856128a6565b818103606083015261294c818461260a565b905095945050505050565b60006020820190508181036000830152612971818461259d565b905092915050565b600060208201905061298e60008301846125fb565b92915050565b600060208201905081810360008301526129ae8184612643565b905092915050565b600060208201905081810360008301526129cf816126ad565b9050919050565b600060208201905081810360008301526129ef816126d0565b9050919050565b60006020820190508181036000830152612a0f816126f3565b9050919050565b60006020820190508181036000830152612a2f81612716565b9050919050565b60006020820190508181036000830152612a4f81612739565b9050919050565b60006020820190508181036000830152612a6f8161275c565b9050919050565b60006020820190508181036000830152612a8f8161277f565b9050919050565b60006020820190508181036000830152612aaf816127a2565b9050919050565b60006020820190508181036000830152612acf816127c5565b9050919050565b60006020820190508181036000830152612aef816127e8565b9050919050565b60006020820190508181036000830152612b0f8161280b565b9050919050565b60006020820190508181036000830152612b2f8161282e565b9050919050565b60006020820190508181036000830152612b4f81612851565b9050919050565b60006020820190508181036000830152612b6f81612874565b9050919050565b6000602082019050612b8b60008301846128a6565b92915050565b6000612b9b612bac565b9050612ba78282612e37565b919050565b6000604051905090565b600067ffffffffffffffff821115612bd157612bd0612f6f565b5b612bda82612f9e565b9050602081019050919050565b600067ffffffffffffffff821115612c0257612c01612f6f565b5b612c0b82612f9e565b9050602081019050919050565b6000819050602082019050919050565b600081519050919050565b600081519050919050565b600081519050919050565b6000602082019050919050565b600082825260208201905092915050565b600082825260208201905092915050565b600082825260208201905092915050565b600081905092915050565b6000612c9f82612db9565b9150612caa83612db9565b9250827fffffffffffffffffffffffffffffffffffffffffffffffffffffffffffffffff03821115612cdf57612cde612ee2565b5b828201905092915050565b6000612cf582612db9565b9150612d0083612db9565b925082612d1057612d0f612f11565b5b828204905092915050565b6000612d2682612db9565b9150612d3183612db9565b925082821015612d4457612d43612ee2565b5b828203905092915050565b6000612d5a82612d99565b9050919050565b60008115159050919050565b60007fffffffff0000000000000000000000000000000000000000000000000000000082169050919050565b600073ffffffffffffffffffffffffffffffffffffffff82169050919050565b6000819050919050565b82818337600083830152505050565b60005b83811015612df0578082015181840152602081019050612dd5565b83811115612dff576000848401525b50505050565b60006002820490506001821680612e1d57607f821691505b60208210811415612e3157612e30612f40565b5b50919050565b612e4082612f9e565b810181811067ffffffffffffffff82111715612e5f57612e5e612f6f565b5b80604052505050565b6000612e7382612db9565b91507fffffffffffffffffffffffffffffffffffffffffffffffffffffffffffffffff821415612ea657612ea5612ee2565b5b600182019050919050565b6000612ebc82612db9565b9150612ec783612db9565b925082612ed757612ed6612f11565b5b828206905092915050565b7f4e487b7100000000000000000000000000000000000000000000000000000000600052601160045260246000fd5b7f4e487b7100000000000000000000000000000000000000000000000000000000600052601260045260246000fd5b7f4e487b7100000000000000000000000000000000000000000000000000000000600052602260045260246000fd5b7f4e487b7100000000000000000000000000000000000000000000000000000000600052604160045260246000fd5b6000601f19601f8301169050919050565b7f4552433732313a207472616e7366657220746f206e6f6e20455243373231526560008201527f63656976657220696d706c656d656e7465720000000000000000000000000000602082015250565b7f4552433732313a20746f6b656e20616c7265616479206d696e74656400000000600082015250565b7f4552433732313a207472616e7366657220746f20746865207a65726f2061646460008201527f7265737300000000000000000000000000000000000000000000000000000000602082015250565b7f4552433732313a20617070726f766520746f2063616c6c657200000000000000600082015250565b7f4552433732313a206f70657261746f7220717565727920666f72206e6f6e657860008201527f697374656e7420746f6b656e0000000000000000000000000000000000000000602082015250565b7f4552433732313a20617070726f76652063616c6c6572206973206e6f74206f7760008201527f6e6572206e6f7220617070726f76656420666f7220616c6c0000000000000000602082015250565b7f4552433732313a2062616c616e636520717565727920666f7220746865207a6560008201527f726f206164647265737300000000000000000000000000000000000000000000602082015250565b7f4552433732313a206f776e657220717565727920666f72206e6f6e657869737460008201527f656e7420746f6b656e0000000000000000000000000000000000000000000000602082015250565b7f4552433732313a206d696e7420746f20746865207a65726f2061646472657373600082015250565b7f4552433732313a20617070726f76656420717565727920666f72206e6f6e657860008201527f697374656e7420746f6b656e0000000000000000000000000000000000000000602082015250565b7f4552433732313a207472616e73666572206f6620746f6b656e2074686174206960008201527f73206e6f74206f776e0000000000000000000000000000000000000000000000602082015250565b7f4552433732314d657461646174613a2055524920717565727920666f72206e6f60008201527f6e6578697374656e7420746f6b656e0000000000000000000000000000000000602082015250565b7f4552433732313a20617070726f76616c20746f2063757272656e74206f776e6560008201527f7200000000000000000000000000000000000000000000000000000000000000602082015250565b7f4552433732313a207472616e736665722063616c6c6572206973206e6f74206f60008201527f776e6572206e6f7220617070726f766564000000000000000000000000000000602082015250565b61339881612d4f565b81146133a357600080fd5b50565b6133af81612d61565b81146133ba57600080fd5b50565b6133c681612d6d565b81146133d157600080fd5b50565b6133dd81612db9565b81146133e857600080fd5b5056fea2646970667358221220d9a95c86c95472d02d60b39717bc7bdbcdee60772b1e0612d6292a01bd093ac964736f6c63430008010033",
  "immutableReferences": {},
  "source": "// SPDX-License-Identifier: MIT\npragma solidity ^0.8.0;\npragma experimental ABIEncoderV2;\nimport \"../../node_modules/@openzeppelin/contracts/token/ERC721/ERC721.sol\";\n\ncontract NFTDegrees is ERC721 {\n\n  uint public degreeCount = 0;\n\n  struct Deg {\n    string Qualification;\n    string University;\n    string image;\n  }\n\n  struct Student {\n    string Student;\n    uint [] degrees;\n  }\n\n  mapping(string => bool) _degreeExists;\n  mapping(uint => Deg) degrees;\n  mapping(uint => Student) public student;\n  mapping(uint => bool) _studentExists;\n\n  constructor() ERC721(\"Degrees\", \"DEGREES\") {\n    degreeCount = 0;\n  }\n\n  function mint(string memory degreehash, uint id) private {\n    require(!_degreeExists[degreehash]);\n    _mint(msg.sender, id);\n    _degreeExists[degreehash] = true; \n  }\n\n  function transfer(uint id, address toAdd) external {\n    transferFrom(owner(id), toAdd, id);\n  }\n\n  function owner(uint256 id) public view returns (address) {\n    return ownerOf(id);\n  }\n\n  function addStudent(uint id, string memory sName) external {\n    student[id] = Student(sName, new uint[](7));\n    student[id].degrees[0] = 0;\n    _studentExists[id] = true;\n  }\n\n  function addDegree(uint id, string memory quali, string memory uni, string memory img) external {\n    require(_studentExists[id]);\n    student[id].degrees[student[id].degrees[0] + 1] = degreeCount;\n    degrees[degreeCount] = Deg(quali, uni, img);\n    student[id].degrees[0]++;\n    mint(img, degreeCount);\n    degreeCount++;\n  }\n\n  function getDegreeImage(uint num) external view returns (string memory) {\n    return degrees[num].image;\n  }\n\n  function search(uint id) external view returns (uint [] memory) {\n    require(_studentExists[id]);\n    return student[id].degrees;\n  }\n\n  function searchCount(uint id) external view returns (uint) {\n    require(_studentExists[id]);\n    return student[id].degrees[0];\n  }\n\n  function studentExists(uint id) external view returns (bool) {\n    return _studentExists[id];\n  }\n\n  function Count() external view returns (uint) {\n    return degreeCount;\n  }\n\n  function studentName(uint id) external view returns (string memory) {\n    require(_studentExists[id]);\n    return student[id].Student;\n  }\n\n}",
  "sourcePath": "/home/marc/hdd/finProj/bvdm4/src/contracts/NFTDegrees.sol",
  "compiler": {
    "name": "solc",
    "version": "0.8.1+commit.df193b15.Emscripten.clang"
  },
  "schemaVersion": "3.4.3",
  "updatedAt": "2021-11-08T12:57:19.317Z",
  "networkType": "ethereum",
  "devdoc": {
    "kind": "dev",
    "methods": {
      "approve(address,uint256)": {
        "details": "See {IERC721-approve}."
      },
      "balanceOf(address)": {
        "details": "See {IERC721-balanceOf}."
      },
      "getApproved(uint256)": {
        "details": "See {IERC721-getApproved}."
      },
      "isApprovedForAll(address,address)": {
        "details": "See {IERC721-isApprovedForAll}."
      },
      "name()": {
        "details": "See {IERC721Metadata-name}."
      },
      "ownerOf(uint256)": {
        "details": "See {IERC721-ownerOf}."
      },
      "safeTransferFrom(address,address,uint256)": {
        "details": "See {IERC721-safeTransferFrom}."
      },
      "safeTransferFrom(address,address,uint256,bytes)": {
        "details": "See {IERC721-safeTransferFrom}."
      },
      "setApprovalForAll(address,bool)": {
        "details": "See {IERC721-setApprovalForAll}."
      },
      "supportsInterface(bytes4)": {
        "details": "See {IERC165-supportsInterface}."
      },
      "symbol()": {
        "details": "See {IERC721Metadata-symbol}."
      },
      "tokenURI(uint256)": {
        "details": "See {IERC721Metadata-tokenURI}."
      },
      "transferFrom(address,address,uint256)": {
        "details": "See {IERC721-transferFrom}."
      }
    },
    "version": 1
  },
  "userdoc": {
    "kind": "user",
    "methods": {},
    "version": 1
  }
}